:020000040800F2
:100000000050002061290008E1020008E502000814
:10001000E9020008ED020008F102000800000000FB
:10002000000000000000000000000000F5020008D1
:10003000F902000800000000FD02000801030008AA
:10004000A9290008A9290008A9290008A929000848
:10005000A9290008A9290008A9290008A929000838
:10006000A9290008A9290008A9290008A929000828
:10007000A9290008A9290008A9290008A929000818
:10008000A9290008A9290008A9290008A929000808
:1000900005030008A9290008A9290008A9290008C2
:1000A000A9290008A9290008A9290008A9290008E8
:1000B000A9290008A9290008A9290008A9290008D8
:1000C000A9290008A9290008A9290008A9290008C8
:1000D000A9290008A9290008A9290008A9290008B8
:1000E000A9290008A9290008A92900080000000082
:1000F0000000000000000000000000000000000000
:0C01000000000000000000005FF808F1A3
:10010C000348044B834202D0034B03B1184770479A
:10011C00E4000020E400002000000000054806492F
:10012C00091A891001EBD171491002D0034B03B1AC
:10013C0018477047E4000020E40000200000000095
:10014C0010B5064C237843B9FFF7DAFF044B13B113
:10015C000448AFF300800123237010BDE40000209D
:10016C0000000000F429000808B5054B1BB1054937
:10017C000548AFF30080BDE80840FFF7CFBF00BFD4
:10018C0000000000E8000020F429000830B501222E
:10019C0000244FF4803302254FF4E01195B00AA8E7
:1001AC000A920E920B93129313910C940594019452
:1001BC000D94CDE90F44CDE90644CDE90844CDE9D1
:1001CC0002440494119500F019F90F224FF4806346
:1001DC00294605A80592089306950794099400F002
:1001EC002BFB102301A80494019300F0D9FB15B04C
:1001FC0030BD00BF002500B58BB0CDE9045500F033
:10020C00C7F8FFF7C3FF4FF4005001242D4B08959E
:10021C009A6906A942F020029A619A692A4D02F065
:10022C0020020192019A9A6942F010029A619A692D
:10023C0002F010020292029A9A6942F004029A6148
:10024C009B69069003F0040300F18040039300F5D2
:10025C007040039B0794099400F028FC01F0CAFD40
:10026C001A4C41F2042341F20F0604A90822284635
:10027C00ADF81430ADF8126002F056FB322000F0ED
:10028C00ABF80023082204A92846ADF81230ADF8CB
:10029C00143002F049FB0A2000F09EF84FF4005194
:1002AC00204600F0F1FC4FF4C87000F095F82046A1
:1002BC004FF4005100F0E8FC4FF4C87000F08CF8DB
:1002CC00CFE700BF001002401C01002000100140CD
:1002DC00704700BF704700BFFEE700BFFEE700BFDE
:1002EC00FEE700BFFEE700BF704700BF704700BFCE
:1002FC00704700BF00F05EB8014800F063BE00BF5D
:10030C00400300200E4B82B09A690E4942F0010264
:10031C009A619A6902F001020092009ADA6942F03D
:10032C008052DA61DB6903F080530193019B4B68C7
:10033C0023F0E06343F000734B6002B0704700BFE2
:10034C00001002400000014038B54FF47A730D499B
:10035C000D4A09781268B3FBF1F30546B2FBF3F0D2
:10036C0000F0EAFC08B90F2D01D9012038BD044674
:10037C00024629464FF0FF3000F09CFC034B204610
:10038C001D6038BD00000020080000200400002083
:10039C00074A08B51368032043F01003136000F0FC
:1003AC0077FC0020FFF7D0FFFFF7ACFF002008BD63
:1003BC0000200240034A044B11681B780B44136065
:1003CC00704700BF1801002000000020014B186886
:1003DC00704700BF1801002038B50446FFF7F6FF40
:1003EC00631C054602D0044B1B781C44FFF7EEFF40
:1003FC00401BA042FAD338BD000000202DE9F0418B
:10040C00036882B0DD07044630D5AB494A6802F078
:10041C000C02042A00F0DA804A6802F00C02082A66
:10042C0000F0D0806368B3F5803F00F00F81002BA3
:10043C0000F02781B3F5A02F00F0B5819E4B1A6810
:10044C0022F480321A601A6822F480221A60FFF7B4
:10045C00BDFF994D064605E0FFF7B8FF801B6428E9
:10046C0000F20B812B689A03F6D523689F0728D5D9
:10047C00914A516811F00C0F00F0B680516801F0F0
:10048C000C01082900F0AC802369002B00F041819D
:10049C0001228A4B884D1A60FFF798FF064605E04B
:1004AC00FFF794FF801B022800F2E7802B68980767
:1004BC00F6D52B68626923F0F80343EAC2032B607C
:1004CC0023681A0722D5A369002B00F0988001221B
:1004DC007B4B794D1A60FFF779FF064605E0FFF775
:1004EC0075FF801B022800F2C8806B6A9B07F6D54B
:1004FC00744B754A1B68A2FB03235B0A019300BF74
:10050C00019B5A1E0192002BF9D123685D0739D546
:10051C00694BDA69D00040F1828000256B4B1A6878
:10052C00D10540F19980E368012B0FD0002B00F02E
:10053C00D180052B604B1A6A00F0FC8022F001027E
:10054C001A621A6A22F004021A6204E05A4A136A06
:10055C0043F001031362FFF739FF574E804641F217
:10056C00883706E0FFF732FFA0EB0800B84200F234
:10057C008480336A9B07F5D525B14F4AD36923F0A4
:10058C008053D361E369CBB14B4D6A6802F00C0226
:10059C00082A30D0022B4FF000024D4B00F0D280D5
:1005AC001A60FFF713FF2C46054604E0FFF70EFF19
:1005BC00401B022861D823689B01F7D4002002B0AD
:1005CC00BDE8F0814A68D0037FF52CAF3A4A126837
:1005DC0091037FF54BAF6268002A7FF447AF0AE0C6
:1005EC005268D6033FF550AF334A1268950721D5B0
:1005FC002269012A1ED0012002B0BDE8F081304AE8
:10060C002D4D1360FFF7E2FE064604E0FFF7DEFE19
:10061C00801B022831D86B6A9F07F7D475E7DA691B
:10062C00012542F08052DA61DB6903F080530093BC
:10063C00009B73E7204960690A6822F0F80242EADD
:10064C00C0020A601A077FF561AF3CE71A4A1368CB
:10065C0043F480331360FAE61A681E4642F4807243
:10066C001A60FFF7B3FE07463368DA053FF55BAF58
:10067C00FFF7ACFEC01B6428F6D9032002B0BDE81E
:10068C00F08103F1804303F504331A681D4622F40C
:10069C0080321A601A6822F480221A60FFF796FEE4
:1006AC00064604E0FFF792FE801B6428E5D82B6811
:1006BC009B03F7D4D9E600BF001002400000424271
:1006CC008004424208000020D34D621000700040AC
:1006DC006000424203F1804303F504331A6A1E465C
:1006EC0022F001021A621A6A41F2883822F00402DE
:1006FC001A62FFF76BFE074604E0FFF767FEC01BAC
:10070C004045BAD8336A9807F7D4002D3FF43AAF76
:10071C0033E72B4A2B4D1360FFF758FE064604E0D7
:10072C00FFF754FE801B0228A7D82B689907F7D433
:10073C002368C6E642F004021A621A6A42F0010209
:10074C001A6208E71A60FFF741FE064604E0FFF75D
:10075C003DFE801B022890D82B689901F7D4226AA1
:10076C00B2F5803F05D16B68A16823F400330B43CD
:10077C006B600125134B606A5968024321F47411B4
:10078C0011480A435A6005601C46FFF71FFE0546D8
:10079C0005E0FFF71BFE401B02283FF66EAF2368F7
:1007AC009A01F6D50AE703F18043A3F53C331A68A6
:1007BC0042F480221A601A6842F480321A6046E6CB
:1007CC0000004242001002406000424240F201220E
:1007DC0086B0154B0DF1180CADF804200FCB0CE9BD
:1007EC000F00124A536803F00C01082902D010487C
:1007FC0006B07047C3F383416144DB0311F8101C4E
:10080C000CD553680A48C3F3404300FB01F0634422
:10081C0013F8143CB0FBF3F006B07047054800FB2E
:10082C0001F006B0704700BF0C2A0008001002400F
:10083C0000127A0000093D00554A136803F00703C3
:10084C008B420BD2136823F007030B43136013681E
:10085C0003F007038B4201D00120704703682DE998
:10086C00F0419D0714D55C0704D54A4C626842F4EC
:10087C00E06262601A0704D5464C626842F460522A
:10088C006260444C8568626822F0F0022A43626020
:10089C00DF0705460C4622D542683E4B012A1B68F1
:1008AC0070D0022A6BD0990729D53A4E41F288387C
:1008BC00736823F0030313437360FFF787FD6B68C2
:1008CC000746012B4AD0022B05D152E0FFF77EFDE3
:1008DC00C01B404559D8736813F00C0FF6D12C4A45
:1008EC00136803F00703A3420CD9136823F0070322
:1008FC0023431360136803F00703A34202D00120C3
:10090C00BDE8F0812B685A0706D52249E8684A6889
:10091C0022F4E06202434A601B0711D4FFF756FF32
:10092C001C4B1D495B681D4AC3F30313CB5C20FAB7
:10093C0003F300201360FFF707FD0020BDE8F081F2
:10094C00144A2969536823F4605343EAC103536082
:10095C00E4E7FFF73BFDC01B404516D8736803F076
:10096C000C03042BF5D1BAE7FFF730FDC01B404553
:10097C000BD8736803F00C03082BF5D1AFE7980183
:10098C0093D4BCE79E0390D4B9E70320BDE8F08173
:10099C0000200240001002401C2A00080800002021
:1009AC002DE9F0410446006882B0C50727D53C4BC1
:1009BC00DA69D1003AD53B4B00251A68D20543D5EC
:1009CC00374960680A6A12F440720FD000F4407321
:1009DC0093420BD0012700260B6A334A23F4407054
:1009EC00176016600862D80749D460682C4A136AED
:1009FC0023F44073034313622068002D38D183071E
:100A0C0006D5274AA168536823F440430B4353602F
:100A1C0010F0100007D00020214AE168536823F43D
:100A2C0080030B43536002B0BDE8F081DA69012505
:100A3C0042F08052DA61DB6903F080530193019B31
:100A4C00184B1A68D205BBD41A681E4642F4807241
:100A5C001A60FFF7BBFC07463368DB05B0D4FFF721
:100A6C00B5FCC01B6428F7D9032002B0BDE8F081A7
:100A7C00D36923F08053D3618307C9D5C1E70E46F0
:100A8C00FFF7A4FC41F288378046336A9A07ACD44E
:100A9C00FFF79CFCA0EB0800B842F6D9E4E700BFD6
:100AAC000010024000700040400442422DE9F04F1B
:100ABC004FF0000883B043466A4EDFF8BCE1DFF824
:100ACC00BCC102E00133102B7DD001220C689A408E
:100ADC0002EA0405AA42F5D14C68122C00F0A98058
:100AEC0000F28180022C00F0A0806FD9032C00F062
:100AFC009980112C02D1CA6802F10408FF2D6CD820
:100B0C00824602689C004FF00F0909FA04FB22EAA6
:100B1C000B0208FA04F42243CAF80020D1F804A00E
:100B2C001AF0805FCED0504F23F00304BA6904F161
:100B3C00804442F00102BA61BA6904F5803402F0D3
:100B4C000102019203F0030B019A4FEA8B0BA2688E
:100B5C00A7F5843709FA0BF9B84222EA090211D039
:100B6C0007F58067B84268D0404FB84273D0404F09
:100B7C00B8420CBF4FF003094FF0040909FA0BFB04
:100B8C0042EA0B02A26032681AF4803F14BF2A4377
:100B9C00AA43326072681AF4003F14BF2A43AA4376
:100BAC007260B2681AF4801F14BF2A43AA43B26061
:100BBC00F4681AF4001F03F1010314BF2C43AC4377
:100BCC00102BF46081D103B0BDE8F08FC4B1012CBF
:100BDC0094D1FF2DD1F80C8092D99C004268203C16
:100BEC0000F1040A8FE774450AD00ED9644507D08A
:100BFC00204FBC4204D0DFF888904C457FF47EAF88
:100C0C008C680CBB4FF0040878E7DFF878904C4503
:100C1C00F6D009F580394C457FF470AF8C68002C08
:100C2C00F0D011E04FF0000868E7CA6802F108083C
:100C3C0064E7CA6802F10C0860E74FF0010909FA91
:100C4C000BFB42EA0B029DE7012C0CBF02614261D7
:100C5C004FF0080852E74FF0020909FA0BFB42EA81
:100C6C000B028FE70004014000100240001001400D
:100C7C00001401400000321000002110000031105F
:100C8C000000221000001110C3685940C160704769
:100C9C004FF6FF01064A0002D36800F4E0600B40F7
:100CAC00184340F0BF6040F40030D060704700BF84
:100CBC0000ED00E0184B30B4DC68C4F30224C4F13E
:100CCC000705042D04F1040328BF0425062B18D9AD
:100CDC004FF0FF33033CA34022EA03024FF0FF33F3
:100CEC00AB4021EA0303A34013431B010028DBB2F2
:100CFC000ADB00F1604000F5614080F8003330BC45
:100D0C00704700221446E9E7044A00F00F00024441
:100D1C00137630BC704700BF00ED00E0FCEC00E047
:100D2C00012300F01F01034A40098B4042F8203098
:100D3C00704700BF00E100E00138B0F1807F0DD2B8
:100D4C0030B4F02500220721054B064C586084F87E
:100D5C002350104630BC9A601960704701207047D0
:100D6C0010E000E000ED00E030B44FF41F054FF050
:100D7C0000640E4B0E4A19680E4841F001011960CF
:100D8C0059680A405A601A6822F0847222F4803240
:100D9C001A601A6822F480221A605A6822F4FE0241
:100DAC005A609D60846030BC704700BF00100240E8
:100DBC000000FFF800ED00E0002863D0F0B590F8DB
:100DCC00293487B0054603F0FF02002B55D00323CE
:100DDC002E4685F82934286800F012FC56F810CB02
:100DEC006C4637460FCF0FC43B682F1D236097E826
:100DFC000E00604600F0F2FB0021286800F00AFCAF
:100E0C0000212B4608462A46012482F82810918698
:100E1C0001310F2982F8294082F82B00C2E90E001B
:100E2C00106402F12002F0D10022144683F828222B
:100E3C009A8601320F2A83F8294283F82B42C3E9A0
:100E4C008E44C3F8404203F12003EFD1EC460FCEA1
:100E5C00ACE80F003368CCF8003097E80E00286837
:100E6C0000F0DAFB012385F82440286885F8293442
:100E7C0000F09CFF002007B0F0BD80F8282400F0A3
:100E8C00CFFFA4E70120704790F82834012B10D035
:100E9C00012110B5044680F8281401F0DBF8206815
:100EAC0000F082FF206800F0A1FB002084F82804E9
:100EBC0010BD0220704700BF90F82824012A0DD0E5
:100ECC0010B50446012284F8241080F82824006808
:100EDC0000F064FF002084F8280410BD0220704745
:100EEC0038B54CB2002C01F07F05B5BF00EB4511B5
:100EFC0000EB4111283101F50A71E40F4C700D70B3
:100F0C00CB7090F828340A61012B0AD001230446D7
:100F1C0080F82834006800F099FB002084F828043D
:100F2C0038BD022038BD00BF4BB2002B01F07F0250
:100F3C00B5BF00EB421100EB4111283101F50A71EC
:100F4C00DB0F4B700A7090F82834012B0BD0012367
:100F5C0010B5044680F82834006800F0E1FC00204D
:100F6C0084F8280410BD0220704700BF70B500261D
:100F7C0001F07F014D01441905F50A7584F828121A
:100F8C00C4E98F2341190068C4F8446284F82962CB
:100F9C0000F08EFD304670BDF8B50026012701F03B
:100FAC007F014D014419283584F82810C4E90F231A
:100FBC004119006884F82970666400F079FD3046A8
:100FCC00F8BD00BF2DE9F04F044683B0006800F077
:100FDC00EFFE000400F1B5802268104600F0E8FE38
:100FEC00460500F19080206800F0E2FE10F4804F7E
:100FFC00206807D0B0F8443023F480431B041B0C4A
:10100C00A0F8443000F0D4FE10F4005F20681ED12C
:10101C0000F0CEFEC50426D4206800F0C9FE000501
:10102C0042D4206800F0C4FE82055FD4206800F032
:10103C00BFFEC30508D52268B2F8443023F4807390
:10104C001B041B0CA2F8443003B0BDE8F08FB0F8C1
:10105C00443023F400531B041B0CA0F8443000F064
:10106C00A7FEC504D8D522682046B2F8403023F03C
:10107C0004031B041B0CA2F84030B2F8403023F0E0
:10108C0008031B041B0CA2F8403000F021FF206861
:10109C00B0F8443023F480531B041B0CA0F84430EC
:1010AC0000F086FE0005BCD52368B3F84020184636
:1010BC0042F00802A3F84020B3F8442022F4006266
:1010CC001204120CA3F84420B3F8402042F004029E
:1010DC00A3F8402000F06CFEC104A2D4204600F01E
:1010EC00E7FE206800F064FE82059FD5226820464A
:1010FC00B2F8443023F400731B041B0CA2F84430E8
:10110C0000F0C4FE92E722682046B2F8443023F483
:10111C0080631B041B0CA2F8443000F0BBFE94F857
:10112C002834012B3FF45FAF0025012384F82450B1
:10113C0084F828342946206800F030FE84F82854BE
:10114C0051E700232268DFF8B893DFF8B8A3DFF883
:10115C00B8B3ADF80430ADF80630B2F844309BB2F9
:10116C001F04ADF804307FF538AFBDF8046016F0FD
:10117C000F064DD1BDF80410138811F0100100F0CA
:10118C00C4809BB2ADF80630BDF80630190500F1ED
:10119C000881BDF806301B04DFD540F68F7311882B
:1011AC000B401380B2F8503094F8281203EBC103B3
:1011BC0002EB4303D3F80C34C3F30903C4F84432F1
:1011CC00002B40F06F810021204600F04FFE22687A
:1011DC00D4F83812B2F850303E2902F5806503F18C
:1011EC00060300F24981C1F34F00CE0744BF013022
:1011FC0080B2800280B245F8130013880AEA030318
:10120C0083F4405343F4004343F080031380A4E77A
:10121C0032F826309BB2ADF80630BDF80630190412
:10122C003AD4BDF806301B0697D532F82630750136
:10123C0009EA030322F82630671997F8323002F5D1
:10124C008061002B40F08F80B2F8503097F8280066
:10125C0003EBC003023351F81330C3F309037B646F
:10126C00002B40F036812544B2F8503095F8280018
:10127C00EA6B03EBC003023351F813102B6CC1F370
:10128C0009010A446964EA63002B65D101462046D2
:10129C0000F0F4FD226860E740F68F7332F82610F8
:1012AC0075010B4022F8263004EB050898F8323211
:1012BC0002F58060002B40F09480B2F8503098F822
:1012CC00281203EBC103063350F81370C7F3090758
:1012DC00002F40F0DE802544D5F84412D5E98F2349
:1012EC0039443A44C5F84412C5F83C22002B00F0AE
:1012FC00E880D5F8380295F82812874280F0E4800F
:10130C00204600F0B3FD22688BE709EA0303138043
:10131C00B2F8500094F82850E36B00EBC50002EBD8
:10132C004002D2F804242046C2F309021344E363BA
:10133C00626400F0A3FD94F8243093B1236C22680E
:10134C00002B7FF40AAF94F8241041F08001A2F82E
:10135C004C1084F8243000E795F828102046FFF74D
:10136C001BFE2268F9E697F8283004EB461632F893
:10137C002300DB0010F0400FB2F8500003444FD0B4
:10138C00023351F81330C3F309037364002B4FD0AD
:10139C001046F96BFA8D00F011FD226802F58061A0
:1013AC0046E0B2F8503094F82812104603EBC10313
:1013BC0002EB4302D2F80C3404F22C41C3F30903C0
:1013CC00B4F82C22C4F8443200F006FD40F68F73BA
:1013DC002268204611880B40138000F041FD2268E2
:1013EC00BBE698F8283232F8237002EB830117F42D
:1013FC00804FB2F850704FEAC3033B4427D10633F9
:10140C0050F81370C7F30907002F74D140F60F730F
:10141C000A88134043F4004343F0C0030B805AE79F
:10142C00063351F81330C3F309037364002B59D1FD
:10143C0040F60F73601990F8280032F820603340A2
:10144C0043F4404343F0800322F820300BE702338F
:10145C0050F81370C7F30907002FD7D03B4610463E
:10146C00B8F82E22D8F83C1200F0B6FC98F82832C6
:10147C00216801EB8301C9E7C1F34F10CF0604BF0C
:10148C0000F1FF3080B24BEA802080B245F81300A7
:10149C00B3E610463B46B8F82C22D8F83C1200F0C4
:1014AC009BFC18E71046D4F83C12B4F82C2200F040
:1014BC0093FCD4F83C32D4F844221344C4F83C32A4
:1014CC0081E695F828121BE72046FFF74FFD2268AE
:1014DC00A7E61046F96BBA8D00F070FC226802F595
:1014EC008061C0E61046F96B3A8E00F067FC22680A
:1014FC0002F580619CE710463B46B8F83022B1E714
:10150C000F8FFFFF8FBFFFFF0080FFFF012238B559
:10151C004BB2002B01F07F05B5BF00EB451100EB82
:10152C004111283101F50A71DB0F4B700D708A7077
:10153C0090F82834934210D0044680F82824006890
:10154C0000F0B0FB1DB1002084F8280438BD04F273
:10155C002C41206800F030FCF5E7022038BD00BFBC
:10156C0038B500254BB2002B01F07F02B5BF00EB64
:10157C00421100EB4111283101F50A71DB0F4B7060
:10158C000A708D7090F82834012B0AD00123044680
:10159C0080F82834006800F0B7FB84F828542846FB
:1015AC0038BD022038BD00BF11F0800F11D001F002
:1015BC007F0100EB4110283099B21AB982728180F8
:1015CC000020704701221B0C0381C1808272002015
:1015DC00704700EB411000F50A70EDE784B001A8EC
:1015EC0080E80E0004B00020704700BF0246B0F83F
:1015FC004030002043F43F43A2F84030704700BF16
:10160C0044F2FF230246B0F8401000200B40A2F831
:10161C00403070470020704784B070B404460125F8
:10162C000020A4F84050A4F84000A4F84400A4F80A
:10163C005000B4F8406004AD46F43F46A4F8406056
:10164C0085E80E0070BC04B0704700BF70B40A7817
:10165C00CB7800EB8204032B0ED8DFE803F002BA40
:10166C00B0A430F82240AA4B234043F4007320F876
:10167C0022300A7800EB820440F60F75238800F5BF
:10168C0080662B40134343F4004343F080032380D4
:10169C008B7A6BBB8A880B784C7852085200DB0033
:1016AC00002C00F0DF80B0F85040234446F81320A3
:1016BC000B7830F8234000EB830264060BD530F82E
:1016CC002320154045F4004545F0C00520F8235073
:1016DC000A7800EB820211888E4B002070BC0B4004
:1016EC0083F0200343F4004343F0800313807047DE
:1016FC0040F60F630A7830F82240234043F401434C
:10170C0043F0800320F82230CB88B0F850200C78BE
:10171C005B0802EBC4025B0046F81230B0F85030A4
:10172C000A890C780433520803EBC403520046F8C0
:10173C0013200A784B7830F82240002B55D16604E0
:10174C0000EB82030BD530F822301D4045F44045A8
:10175C0045F0800520F822500B7800EB83031A88A3
:10176C00550600F1C88040F60F7248F280041D88BF
:10177C002A4042F4004242F0C0021A800A78664BBA
:10178C0030F822502B4083F44053234320F822306E
:10179C000A78604B30F822100B401C4320F8224092
:1017AC00002070BC704730F82240594B234043F462
:1017BC00C06320F822300A7800EB82045CE730F832
:1017CC002240534B234020F822300A7800EB82044D
:1017DC0052E730F822404E4B234043F4806320F80C
:1017EC0022300A7800EB820446E7640400EB8203A3
:1017FC000BD530F822301D4045F4404545F08005AE
:10180C0020F822500B7800EB83031A8852060BD574
:10181C0040F60F721C88224042F4004242F0C00293
:10182C001A800B7800EB830340F60F7248F28004A9
:10183C001D882A4042F4404242F080021A800A7805
:10184C00344B30F822502B40234320F822300A78B6
:10185C00314B30F822100B401C4320F82240002062
:10186C0070BC7047B0F85050B0F850402B44043363
:10187C0046F813200A690D78A31D3E2A03EBC50315
:10188C002BD8C2F34F04D50744BF0134A4B2A40231
:10189C00A4B246F813400B7830F8234000EB8302D7
:1018AC0064040DD540F60F7230F82340224042F408
:1018BC00404242F0800220F823200A7800EB82029A
:1018CC001188154B002070BC0B4083F4405343F43B
:1018DC00004343F0800313807047C2F34F14D206C9
:1018EC0004BF04F1FF3294B20C4A42EA842292B251
:1018FC0046F81320CFE740F60F721C88224042F4C2
:10190C00004242F0C0021A800B7800EB83032AE7F6
:10191C008F89FFFFBF8FFFFF8FBFFFFF0080FFFF8F
:10192C0030B40A788D7A00EB82034C786DBB7CB1B5
:10193C0030F82240640600F1A88030BC19885A4A5D
:10194C0000200A4042F4004242F080021A807047A4
:10195C0030F8224065040DD540F60F7330F8224064
:10196C00234043F4404343F0800320F822300B78AB
:10197C0000EB830319884D4A002030BC0A4042F426
:10198C00004242F080021A807047002C3ED130F8A1
:10199C00224064040DD540F60F7330F822402340EA
:1019AC0043F4404343F0800320F822300B7800EBE3
:1019BC0083031A8855060BD540F60F721C882240FB
:1019CC0042F4004242F0C0021A800B7800EB830311
:1019DC0040F60F7248F280041D882A4042F40042FF
:1019EC0042F0C0021A800A78304B30F822502B405B
:1019FC00234320F822300A782B4B30F822100B406E
:101A0C001C4320F82240002030BC704730F82240A4
:101A1C0064040DD540F60F7330F82240234043F494
:101A2C00404343F0800320F822300B7800EB830313
:101A3C001A8852060BD540F60F721C88224042F4CD
:101A4C00004242F0C0021A800B7800EB830340F690
:101A5C000F7248F280041D882A4042F4404242F042
:101A6C0080021A800A78104B30F822502B40234306
:101A7C0020F822300A780D4B30F822100B401C4312
:101A8C0020F82240002030BC704740F60F7330F82D
:101A9C002240234043F4004343F0C00320F822309B
:101AAC000B7800EB830348E7BF8FFFFF8FBFFFFF6F
:101ABC00F0B44C788E69012C0B6958D09E4292BFC1
:101ACC000022F21A1E468B7A8A610A783BBBB0F868
:101ADC0050303E2E03F1060300F5806403EBC20286
:101AEC0040F2A180C6F34F15F60604BF05F1FF3393
:101AFC009DB2694B43EA85239BB244F812300A78B5
:101B0C0030F82210654BF0BC0B4083F4405343F487
:101B1C00004343F0800320F8223000207047002C53
:101B2C00EED1B0F850303E2E03F1020300F5806484
:101B3C0003EBC20240F29480C6F34F15F70604BFC4
:101B4C0005F1FF339DB2544B43EA85239BB244F815
:101B5C0012304D78002D40F09180B0F850200D7867
:101B6C00063202EBC50244F812300A78C8E79E42EE
:101B7C0086BFF21A1E460022B3B28C7A01338A61F8
:101B8C005B104F6900F58062ACB98C8802EB4404A1
:101B9C002BB137F8025B013B24F8045BF9D1B0F8A8
:101BAC0050300C78023303EBC40342F813600A780C
:101BBC0000EB82022AE00C7830F82450B0F850C0C8
:101BCC006D064FEAC4044CBF0D89CD8864440234C1
:101BDC0042F8146002EB45022BB137F8024B013B83
:101BEC0022F8044BF9D10C784B7800EB840233BB10
:101BFC0040F60F7330F82420134043F4004343F0B5
:101C0C00C00320F824300A7800EB82021188244BA0
:101C1C000020F0BC0B4083F0300343F4004343F04E
:101C2C00800313807047C6F34F03F50744BF01339D
:101C3C009BB29B029BB244F812300A7860E7012BEE
:101C4C00E4D140F60F7330F82420134043F44043A2
:101C5C0043F0800320F824300A7800EB8202D5E7A9
:101C6C00C6F34F03F50744BF01339BB29B029BB2F3
:101C7C0044F812304D78002D3FF46FAF012D0A78E7
:101C8C007FF43EAFB0F85030023303EBC20244F89D
:101C9C0012600A7834E700BF0080FFFF8FBFFFFFA0
:101CAC00BF8FFFFF0B786BB90288144B134083F482
:101CBC00805383F0100343F4004343F0800303800C
:101CCC00002070474A7830F823105AB10C4A0A4069
:101CDC0082F0100242F4004242F0800220F82320ED
:101CEC0000207047074A0A4082F4805242F40042B6
:101CFC0042F0800220F8232000207047BFBFFFFF76
:101D0C00BF8FFFFF8FBFFFFF10B40B784C7800EB39
:101D1C008302FCB130F8234064060CD411881D4BAF
:101D2C0000200B4083F0300343F4004343F0800366
:101D3C00138010BC704740F60F7230F823402240DD
:101D4C0042F4004242F0C00220F823200A7800EB53
:101D5C008202E3E730F8234064040DD540F60F729D
:101D6C0030F82340224042F4404242F0800220F8F6
:101D7C0023200A7800EB82021188074B00200B40CD
:101D8C0083F4405343F4004343F08003138010BCAE
:101D9C00704700BFBF8FFFFF8FBFFFFF11B98023BC
:101DAC00A0F84C300020704700207047002070478E
:101DBC00B0F84400704700BF00207047013300F5B5
:101DCC0080605B1000EB420205D031F8020B013B46
:101DDC0022F8040BF9D17047013300F580605B10D9
:101DEC0000EB420205D052F8040B013B21F8020B28
:101DFC00F9D1704710B5074C00222046064900F077
:101E0C007DF92046054900F08FF92046BDE81040C9
:101E1C0000F092B91C0100200C0000207000002082
:101E2C0002680E4B9A4200D07047002203F5DA3359
:101E3C0010B5DC6982B044F40004DC61DB69114646
:101E4C0003F4000301931420019BFEF733FF1420CD
:101E5C0002B0BDE81040FEF763BF00BF005C00405D
:101E6C0000F22C41D0F85C0400F07EB900EB411379
:101E7C00D3F83C22D0F85C0400F0A4B900EB411379
:101E8C00DA6BD0F85C0400F0D1B900BFD0F85C0478
:101E9C0000F052BA10B504460121D0F85C0400F0F1
:101EAC0035FAD4F85C04BDE8104000F00FBA00BF5E
:101EBC0010B50446D0F85C0400F02CFAA36923B1E9
:101ECC00024A136943F00603136110BD00ED00E0F4
:101EDC00D0F85C0400F028BA70B504460820002243
:101EEC0002250321154B164EC3F85C44C3E9006070
:101EFC00C4F820321846C3E90251C3E906221A621B
:101F0C00FEF75AFFB8B9002218231146D4F8200264
:101F1C00FFF74AFB582300228021D4F82002FFF758
:101F2C0043FBD4F820024FF4807300228121FFF789
:101F3C003BFB002070BDFEF7CBF9E4E7400300202B
:101F4C00005C004008B5D0F82002FEF79DFF032886
:101F5C0096BF024B0220185C08BD00BF2C2A00085B
:101F6C0010B51C46D0F8200213462246FEF7B8FFE7
:101F7C00032896BF014B0220185C10BD2C2A0008C8
:101F8C0008B5D0F82002FEF7CFFF032896BF024B0E
:101F9C000220185C08BD00BF2C2A000808B5D0F838
:101FAC002002FFF7B3FA032896BF024B0220185CFD
:101FBC0008BD00BF2C2A000808B5D0F82002FFF796
:101FCC00CFFA032896BF024B0220185C08BD00BF55
:101FDC002C2A00080A06D0F8203204D403EB411353
:101FEC0093F82A02704701F07F0103EB411393F839
:101FFC002A00704708B5D0F82002FEF75DFF0328D1
:10200C0096BF024B0220185C08BD00BF2C2A0008AA
:10201C0008B5D0F82002FEF7BFFF032896BF024B8D
:10202C000220185C08BD00BF2C2A000808B5D0F8A7
:10203C002002FEF79BFF032896BF024B0220185C80
:10204C0008BD00BF2C2A0008004870470001002082
:10205C00704700BF704700BF122301480B807047C8
:10206C0028000020042301480B8070473C0000200E
:10207C0010B5044C0A460448214600F05DFB20468E
:10208C0010BD00BFA00700204C2A000810B5044C5E
:10209C000A460448214600F04FFB204610BD00BF05
:1020AC00A0070020602A000810B5044C0A4604481A
:1020BC00214600F041FB204610BD00BFA0070020C8
:1020CC00782A000810B5044C0A460448214600F052
:1020DC0033FB204610BD00BFA0070020302A0008AB
:1020EC0010B5044C0A460448214600F025FB204656
:1020FC0010BD00BFA00700203C2A000888B108B51D
:10210C00D0F8143213B10023C0F8143209B1C0F85E
:10211C0010120123027080F8FC31FFF7DDFE002065
:10212C0008BD0220704700BF19B1C0F8141200207E
:10213C0070470220704700BF08B5FFF703FF00206F
:10214C0008BD00BF08B5D0F814321BB11B68984706
:10215C0000B908BD022008BD08B5D0F814325B6880
:10216C009847002008BD00BF38B5044600F502753D
:10217C00284600F0C1FA012094F80812B4F80E2297
:10218C0001F01F038342C4E97D0209D0A3B1022BE5
:10219C000CD001F080012046FFF700FF002038BD75
:1021AC002946204600F020FA002038BD294620465A
:1021BC0000F038FA002038BD2946204600F0CAF855
:1021CC00002038BD10B5044631B91346D0F8F421BF
:1021DC00032A0DD0002010BDD0F814329B69002BBF
:1021EC00F8D090F8FC21032AF4D19847002010BDB8
:1021FC00D0E9431291420DD8D0F814321B6923B1A7
:10220C0090F8FC21032A00D19847204600F0DAFA16
:10221C00002010BD891A8A4228BF0A46C0F80C114A
:10222C0092B2194600F0C6FAD4E700BF70B5044666
:10223C0069B91346D0F8F421022A14D094F800326C
:10224C00012B02D1002384F80032002070BDD0F89D
:10225C0014325B69002BF8D090F8FC21032AF4D1DE
:10226C009847002070BDD0E9076296421DD883695B
:10227C00B3FBF2F502FB15355DB99A4209D8D0F8DB
:10228C00F821934205D22A4600F08CFAC4F8F85192
:10229C0012E0D4F81432DB681BB194F8FC21032A49
:1022AC0011D0204600F09AFAC8E7B21A0D46C26166
:1022BC00194692B200F076FA2B462A462946204659
:1022CC00FFF7B4FEBAE720469847EAE738B5002294
:1022DC004025044611462B46FFF742FE2B460022B2
:1022EC00C4F8105120468021FFF73AFE0122D4F8A1
:1022FC001832256284F8FC212BB1D4F814322179E0
:10230C005B6820469847002038BD00BF0174002050
:10231C00704700BF0346042290F8FC11002083F89C
:10232C00FD1183F8FC217047034690F8FD21002035
:10233C0083F8FC21704700BF90F8FC21032A01D0E0
:10234C000020704708B5D0F81432DB6903B1984708
:10235C00002008BD30B54B7883B00D460446092BE0
:10236C000BD8DFE803F035480A580A05650A7B15D7
:10237C008B8813B9CB88002B7DD080212046FFF7AA
:10238C000DFE20460021FFF709FE002003B030BDF2
:10239C008978944D01292970EFD890F8FC31022BE3
:1023AC0000F08080032BE8D1002900F011814168F6
:1023BC00012909D0C9B2FFF7CFFE29782046616008
:1023CC00FFF7C0FE0228D8D0204600F0FBF9DCE76E
:1023DC0090F8FC31023B012BCFD80122D0F804320B
:1023EC00C2600BB10323C360022204F10C0120462E
:1023FC0000F0CAF9C9E790F8FC31023B012BBCD8BC
:10240C004B88012BC1D10022D0F81432C0F8042221
:10241C009B689847D8E74B88012BB6D1D0F814228B
:10242C00C0F8043293689847204600F0CBF9ACE72B
:10243C004A88130A013B062B9FD801A151F823F0BF
:10244C0019250008DB240008C9240008872300088C
:10245C00872300084325000829250008CA88012A7B
:10246C008BD190F8FC31022B70D0032B85D1011D40
:10247C0000F08AF989E790F8FC31032B3FF47DAF2B
:10248C008D7805F07F0580F8FE512946FFF7B2FDE7
:10249C00204600F097F9002D00F08F80022384F87D
:1024AC00FC3172E700298FD001210323416080F8B1
:1024BC00FC31FFF747FE022886D15EE7D2B2052A2F
:1024CC003FF65BAFDFE802F0716961595149027C5C
:1024DC00D0F81432002A74D19B6A0DF1060098478B
:1024EC0002234370BDF80630002B3FF44EAFEA8850
:1024FC00002A3FF44AAF934228BF134601461A46BE
:10250C002046ADF8063000F03FF93EE7D0F8103227
:10251C000DF106011B68007C9847E3E7037C002B58
:10252C007FF42BAFD0F814320DF106001B6B9847DB
:10253C0007234370D6E7037C002B7FF41EAFD0F843
:10254C0014320DF106005B6B9847CBE70023014674
:10255C0041F8083F00F018F917E7D0F810320DF1E8
:10256C0006019B69007C9847BCE7D0F810320DF14E
:10257C0006015B69007C9847B4E7D0F810320DF186
:10258C0006011B69007C9847ACE7D0F810320DF1BE
:10259C000601DB68007C9847A4E7D0F810320DF1F7
:1025AC0006019B68007C98479CE7D0F810320DF12F
:1025BC0006015B68007C984794E7012384F8FC31A2
:1025CC00E3E6DB6A0DF1060098470223437089E7C6
:1025DC000223416080F8FC31FFF7BEFD204600F07D
:1025EC00F1F8D2E61401002038B590F8FC3104461D
:1025FC00032B0DD10B790D46012B09D8D0F81432D1
:10260C009B689847EB885BB9204600F0DBF807E045
:10261C0080212046FFF7C2FC20460021FFF7BEFCBC
:10262C00002038BD70B50B788A8803F06003202B2E
:10263C00054620D04B780C46012BD6B231D0002B5E
:10264C003ED0032B15D190F8FC31022B23D0032B59
:10265C0017D14B8823B9730602D03146FFF79EFC85
:10266C00D5F8143221469B6828469847284600F036
:10267C00A9F8002070BDD0F814329B689847002050
:10268C0070BD80212846FFF789FC28460021FFF702
:10269C0085FC002070BD7206EBD03146FFF77EFC46
:1026AC00E7E790F8FC31022BF5D0032BE9D14B88EE
:1026BC00002BDED17106D9D03146FFF77DFCCFE778
:1026CC0090F8FC31022BE6D0032BDAD106F07F0414
:1026DC0000EB0414130631464CBF143404F5827419
:1026EC00FFF778FC003018BF012021462060022241
:1026FC00284600F049F8BCE70B7803704B78437020
:10270C00CA788B7803EB022343804A790B7903EB6D
:10271C0002238380CA798B7903EB0223C380704731
:10272C0010B504468021FFF739FC2046BDE8104067
:10273C000021FFF733BC00BF10B3037870B403B3B0
:10274C000446C0F10106A31914F8015FDBB2002D99
:10275C00F9D101335B00DCB2032513800C704D7092
:10276C0004785CB1022300255A1CD2B2CC548D548F
:10277C0010F8014F0233DBB2002CF5D170BC70475E
:10278C00704702242346E7E738B5134602250A466C
:10279C00C0E90633C0F8F4510021FFF739FC0020E2
:1027AC0038BD00BF08B513460A460021FFF730FCC0
:1027BC00002008BD08B513460A460021FFF736FC79
:1027CC00002008BD08B504220023C0F8F4211946E6
:1027DC001A46FFF71DFC002008BD00BF08B50522F6
:1027EC000023C0F8F42119461A46FFF71FFC0020FD
:1027FC0008BD00BF2223038000487047A8000020BA
:10280C000023D0F818221846137370470A2303804C
:10281C0000487047D800002038B50B78054613F0F7
:10282C006004D0F818220ED0202C0AD14B78023B31
:10283C00092B28D8DFE803F0141B27272727272785
:10284C002210002038BD4B780A2B32D00B2B2CD009
:10285C00062B1DD0204638BD8B780020136038BD68
:10286C00111D28460122FFF78FFF002038BD1146AD
:10287C0028460122FFF788FF002038BD4B88002036
:10288C001B0A536038BD2846FFF74AFF022038BDAB
:10289C004B881B0A222B19D0212B11D02146224602
:1028AC002846FFF771FF002038BD8B7820469360D7
:1028BC0038BD02F108010122FFF766FF204638BD42
:1028CC00CA880549092A28BF0922E9E7CA880349A9
:1028DC002D2A28BF2D22E3E7CC0000204000002049
:1028EC0010B504468121FFF74BFBD4F8180220B138
:1028FC00FFF7AEFB0023C4F81832002010BD00BF58
:10290C0010B50423032281210446FFF729FB102074
:10291C00FFF79AFBC4F8180218B10023037318468A
:10292C0010BD012010BD00BF38B590F8FC51032D2F
:10293C0001D0002038BDD0F81842237B002BF8D1F1
:10294C0013460A46012121738121FFF761FB002008
:10295C0038BD00BF002103E00B4B5B5843500431E2
:10296C000A480B4B42189A42F6D30A4A02E000235B
:10297C0042F8043B084B9A42F9D3FEF7F5F900F004
:10298C000FF8FDF737FC7047902A00080000002074
:10299C00E4000020E4000020A0090020FEE7000075
:1029AC0070B500260C4D0D4C641BA410A64209D129
:1029BC0000F01AF800260A4D0A4C641BA410A6421B
:1029CC0005D170BD55F8043B98470136EEE755F834
:1029DC00043B98470136F2E7882A0008882A000849
:1029EC00882A00088C2A0008F8B500BFF8BC08BC7F
:1029FC009E467047F8B500BFF8BC08BC9E467047B1
:102A0C0002030405060708090A0B0C0D0E0F101023
:102A1C000000000000000000010203040607080982
:102A2C000002010248494420436F6E66696700004A
:102A3C0048494420496E7465726661636500000004
:102A4C0053544D6963726F656C656374726F6E6914
:102A5C006373000053544D33322048756D616E2002
:102A6C00696E7465726661636500000030303030E9
:0C2A7C00303030303030314100000000BC
:042A880075010008CC
:042A8C004D010008F0
:102A9000010000001000000000A24A0465200008A8
:102AA000712000087D20000899200008B52000084A
:102AB000D1200008ED2000081201000200000040B3
:102AC00083042B57000201020301000004030904E0
:102AD00005010906A101050719E029E715002501EF
:102AE00075019508810295017508810395067508A1
:102AF000150025650507190029658100C000000043
:102B00000D290008ED280008252800080000000015
:102B1000000000000D280008000000000000000078
:102B20000000000000000000012800080128000843
:102B3000012800081928000809022200010100E00C
:102B40003209040000010301010009211101000103
:102B5000222D000705810304000A0000092111014C
:102B60000001222D000000000A06000200000040C3
:042B70000100000060
:040000050800296165
:00000001FF
